:020000040100F9
:10000000000000000050030033333333F1310001AE
:1000100039370101F0BF0020010000005802040040
:10002000340834088D370101D53701014F00000035
:100030000000000000FA00000000000000000000C6
:10004000000020009600020B28011E0001000000A5
:1000500000000000000000005152525103681B0ACA
:1000600028BF41F08001642900F06A80782900F0FF
:100070000981E42900F0A080F82900F0118173299A
:1000800000F0A282002070470FB4044910B503AA03
:10009000029800F09DFA10BC5DF814FB44010020AA
:1000A00070B5044685690068C10601D5302600E0B8
:1000B0002026C00707D070BDD4E901213046904703
:1000C000206A401C20626D1EF6D570BD70B50446D6
:1000D00085690078C00707D170BDD4E901212020CF
:1000E0009047206A401C20626D1EF6D570BD70B529
:1000F0000C460546012A05D02878800600D5EA6915
:10010000002302E0012305E05B1C934202D2E05C85
:100110000028F9D1A869E618C01AA861286A18440D
:1001200028622846FFF7BCFF04E0D5E9012114F856
:10013000010B9047B442F8D32846FFF7C7FF70BDC4
:100140002DE9F0410646002410687529314616A5B0
:1001500010D0AFF30080002802DA404213A507E078
:1001600031688A0701D512A502E0490704D511A517
:10017000012401E0AFF3008000210A2206F12407E8
:1001800009E0B0FBF2FCB0FBF2F302FB1C003030E4
:1001900078541846491C0028F3D123462A46304695
:1001A000BDE8F04100F08DB9000000002D00000016
:1001B0002B000000200000002DE9F0418046D21DF8
:1001C00022F007020025D2E90002F52915A614D075
:1001D000011E72F1000106DA0023D0EB030063EB8D
:1001E000020211A608E0D8F800108B0701D50FA66F
:1001F00002E0490701D50EA601251146002408F1A9
:10020000240704E000F018F930323A55641C50EA33
:100210000102F7D12B46324621464046BDE8F04167
:1002200000F04FB9000000002D0000002B0000007E
:1002300020000000F0B40D460188090502D51B4CD2
:100240007C4402E0194C7C440E34002100F1240669
:1002500008E002F00F071209E75D42EA03721B098A
:100260007754491C52EA0307F3D12246047800234D
:10027000240704D5702D02D009B102231132F0BC3D
:1002800000F01FB970B504460D4621461068AFF363
:100290000080024629462046BDE870400023C9E799
:1002A000D21D22F00703D3E90023C3E7C0CF020029
:1002B0002DE9F05F894604464FF0000ADFF874B17B
:1002C000FB44C0F820A02046E1688847002874D08D
:1002D000252806D0D4E901219047206A401C2062DD
:1002E000F1E700265F462046E1688847202805465A
:1002F00007DB312D05D2781910F8200C08B1064320
:10030000F1E7B00701D526F00406C4F81CA00027C9
:10031000C4F818A02A2D09D0284602F01BFD38B3D6
:1003200004EB8708303DC8F8185019E059F8041B51
:10033000204604EB87029161E1688847012F05465A
:1003400018D1E069002820DA26F020061DE0D8F850
:10035000180000EB800005EB40003038C8F81800AA
:100360002046E1688847054602F0F4FC0028EED1FB
:10037000012F0AD02E2D08D12046E16888477F1C26
:100380000546022F46F02006C4DBA069002803DAE8
:10039000404246F00106A061F00701D026F01006A9
:1003A0006C2D0BD0682D09D04C2D39D06A2D35D04D
:1003B000742D35D07A2D33D016E038E0E1682F4621
:1003C00020468847B842054609D16C2F26D04FF405
:1003D0008060E168064320468847054604E06C2FAC
:1003E0001AD04FF4807006430DB3A5F141001928CF
:1003F00002D8203546F400664A4629462046266043
:100400004E46FFF72BFE80B101280BD0F61D26F0DB
:10041000070000F1080956E74020E4E78020D8E70C
:100420000020D6E706F104094DE7284652E7206A86
:10043000BDE8F09F68CF020030B5B0F10A024FEA84
:10044000900E71F100034EEA817EB0EB0E0061EB7D
:1004500091014FEA101E4EEA017E10EB0E0041EBB7
:1004600011114FEA102E4EEA016E10EB0E0041EB17
:1004700011214FEA104E4EEA014E10EB0E0041EBF7
:100480001141401841F100014FEAD00040EA4170AB
:100490004FEAD10110EB80054FEA810444EA9074E1
:1004A00044EB01046D1944EB0404521BA3414FF0CB
:1004B000000348BF0A3200D530BD401C41F10001A5
:1004C00030BD2DE9F0470D4699469246044600F1AD
:1004D00024080168880604D5E06921F01001216034
:1004E00000E00120A84201DD471B00E00027A169D0
:1004F0007A1902EB0900081AA0612078C00602D41C
:100500002046FFF7CDFD002608E0D4E901211AF8C6
:1005100006009047206A401C761C20624E45F4DBA2
:100520002078C0060AD52046FFF7BAFD06E0D4E9D8
:10053000012130209047206A401C2062381EA7F11C
:100540000107F4DC07E0D4E9012118F80500904721
:10055000206A401C2062281EA5F10105F3DC20461C
:10056000FFF7B4FD2078000602D50220BDE8F08731
:100570000120FBE701694A1C02610878704700B559
:100580008FB0CDE901310021059105497944CDE9CC
:10059000031011466846FFF78BFE0FB000BD000048
:1005A000E5FFFFFF10B5436913B1AFF3008001E031
:1005B000FFF79DFD012010BD127800F124010A70A3
:1005C00000224A700122EDE711684FF0FF32E9E79F
:1005D000074B70B50D467B44FFF7D1FF0446284614
:1005E00000F008F810B14FF0FF3070BD204670BD2C
:1005F000C34300FF007B00F08000704740F6F70C1B
:10060000C0F2000C604740F6C50CC0F2000C604719
:1006100042F23F6CC2F2000C604740F6F70CC0F2A9
:10062000000C604741F2953CC2F2000C604740F676
:10063000C50CC0F2000C60474AF2CD4CC0F2000C71
:1006400060474AF2A53CC0F2000C60474CF2FD3C0A
:10065000C0F2010C604741F2954CC0F2000C6047BB
:1006600041F27B4CC0F2000C60474CF2D96CC0F2F6
:10067000010C604743F2597CC0F2000C604741F620
:10068000251CC2F2000C604741F6751CC2F2000C3A
:10069000604741F62B0CC2F2000C604740F60D1C7F
:1006A000C0F2000C604740F6F17CC2F2000C6047DB
:1006B00040F6596CC2F2000C604742F6952CC2F22B
:1006C000000C604742F6C11CC2F2000C604742F6C3
:1006D000292CC2F2000C604740F6E77CC2F2000C05
:1006E00060474AF2897CC0F2000C604740F6B50CC6
:1006F000C0F2000C604741F6DB4CC2F2000C6047D0
:1007000042F2692CC0F2000C604740F6613CC2F234
:10071000000C60474AF2211CC0F2000C604741F611
:10072000453CC2F2000C604741F6BB3CC2F2000CF3
:10073000604742F2E36CC2F2000C60474AF2014C9F
:10074000C0F2010C60474AF2693CC0F2010C6047FC
:1007500041F2276CC2F2000C604741F2F95CC2F230
:10076000000C604749F2F95CC0F2010C604742F2AC
:10077000EB5CC2F2000C604741F6A32CC2F2000C05
:10078000604741F6A12CC2F2000C60474AF2256C8A
:10079000C0F2000C60474AF2996CC0F2000C60474E
:1007A00043F2D56CC0F2000C604743F2E96CC0F232
:1007B000000C604743F2FF5CC0F2000C60474AF255
:1007C000F57CC0F2000C60474AF6852CC0F2000CA4
:1007D00060474AF64D3CC0F2000C60474AF2836C19
:1007E000C0F2000C604743F21D7CC0F2000C604771
:1007F0004AF2597CC0F2000C604743F2117CC0F20F
:10080000000C604743F2316CC0F2000C604740F6C8
:10081000E90CC0F2000C604740F6810CC0F2000CFD
:10082000604740F6910CC0F2000C604740F6A10C06
:10083000C0F2000C604749F6254CC0F2000C60473E
:100840004AF2D56CC0F2000C60474AF6452CC0F263
:10085000000C60474AF2876CC0F2000C60474AF215
:10086000656CC0F2000C604741F2436CC2F2000CB0
:10087000604745F2D11CC0F2000C604749F2D15CE0
:10088000C0F2010C604741F6AD4CC0F2000C60476D
:1008900041F6A57CC0F2000C604741F6D57CC0F261
:1008A000000C60474AF2D51CC0F2000C604743F2CE
:1008B0008D5CC0F2000C60474AF2C56CC0F2000CBF
:1008C000604742F68D4CC0F2000C60474AF2293C6A
:1008D000C0F2000C604742F6254CC0F2000C6047A5
:1008E00048F6FD6CC0F2010C60474AF2A15CC0F210
:1008F000000C604742F6651CC0F2000C604742F6EF
:10090000A51CC0F2000C60474AF2592CC0F2000C42
:1009100060474AF2712CC0F2000C604742F6E51CB9
:10092000C0F2000C604748F6097CC0F2010C604739
:1009300048F69D4CC0F2010C60474DF6E95CC0F2F0
:10094000000C604745F6753CC0F2010C604748F664
:10095000F94CC0F2010C604748F2597CC0F2010C1E
:10096000604745F2A92CC0F2000C604749F2990C8F
:10097000C0F2010C604749F69D4CC0F2000C604784
:1009800043F2E95CC0F2000C604741F2D57CC0F252
:10099000000C604741F6053CC0F2000C604741F690
:1009A000295CC0F2000C604741F6A15CC0F2000C6B
:1009B000604741F6C56CC0F2000C604741F6317CDF
:1009C000C0F2000C604742F22D0CC0F2000C6047F0
:1009D00041F6015CC0F2000C60474AF6092CC0F2F7
:1009E000000C604743F2FD6CC0F2000C604743F618
:1009F000631CC0F2000C604743F2817CC0F2000C23
:100A0000604749F2E96CC0F2010C604749F2097C89
:100A1000C0F2010C604749F2297CC0F2010C60472A
:100A20004AF6E90CC0F2000C60474CF2713CC0F28F
:100A3000010C60474AF6315CC0F2010C60474CF291
:100A4000853CC0F2010C604742F2757CC2F2000C9A
:100A5000604749F2617CC0F2010C604700B5154A5D
:100A600089B005AB07CA83E8070005A808F04BF971
:100A7000012308224FF4FC214FF4FA2008F0ACF8CF
:100A800003A808F09FF89DF80F009DF811209DF82D
:100A900010108DE807009DF80E309DF80D209DF890
:100AA0000C1005A0FFF7F0FA00F040FD01F0D6FFB2
:100AB00009B000BD58B302014C6F63616C20424421
:100AC000414444523A203078253258253258253254
:100AD000582532582532582532580D0A000000009A
:100AE00010B584211248FFF789FD114C114844F8D4
:100AF000680F0830E0600E2020740E48801E0088C9
:100B0000A4F8110000F04EF9207100F045F9607171
:100B100000F04EF9000AA07100F04AF9E0710448B3
:100B20000022BDE810400449843024F065BC000078
:100B3000B0360020EEB102018D29000100B59FB052
:100B400020210120ADF83A108DF83000322100202C
:100B5000ADF83C1007218DF831008DF83E108DF86E
:100B600046008DF83F000CA808F0D4F818222DA1FB
:100B700019A8FFF748FD1C2230A112A8FFF743FD7A
:100B80001C2235A105A8FFF73EFD002000F072FBF6
:100B900000F00CFB01283FD0182119A808F0B5F887
:100BA00034A000BFFFF770FA03A808F00BF89DF817
:100BB0000F009DF811209DF810108DE807009DF89A
:100BC0000E309DF80D209DF80C102CA0FFF75CFA5C
:100BD0009DF811008DF816009DF810008DF8170093
:100BE0009DF80F008DF818009DF80E008DF8190083
:100BF0009DF80D008DF81A009DF80C008DF81B0073
:100C00001A2105A808F08AF826A0FFF73DFA00206F
:100C100008F0A4F81FB000BD1B2112A808F075F859
:100C200026A0BFE71209456E657267657469634C5B
:100C300069676874696E6704FF0502001509456EEF
:100C4000657267657469634C69676874696E67503B
:100C5000524F04FF0502000007FF1122334455667E
:100C600007FE59616E6B6F6E02FD0302FC01030308
:100C700000180000756E70726F0D0A004C6F636192
:100C80006C204244414444523A2030782532582561
:100C900032582532582532582532582532580D0AF7
:100CA0000000000053746172742061647665727490
:100CB0006973696E672E2E2E0D0A000070726F0D1B
:100CC0000A00000070B5008810B1012823D11FE090
:100CD000124C04F1320394F865102246581C01F0BE
:100CE0007DFD94F83230B3B10D4D21462D7895B18C
:100CF000112594F87B4065F3174064F30700094C15
:100D000063F30F02247864F30F200DF003FC02E07C
:100D10000020FFF77DFC002070BD0000B0360020F1
:100D2000253100202431002010B5144C94F87D109A
:100D3000012922D1B4F88010084480B2A4F88000C0
:100D4000B0F5FA7F19D3A0F5FA70A4F8800094F8F2
:100D50007E0040B10AA0FFF797F90021012000F0C2
:100D6000ABF8002007E009A0FFF78EF90021084644
:100D700000F0A2F8012084F87E0010BDB0360020FB
:100D80007475726E206F6E0D0A0000007475726EBD
:100D9000206F66660D0A0000014890F82A0070472F
:100DA00048370020014890F823007047483700205A
:100DB0000148008D70470000483700207CB52C2189
:100DC0002148FFF72AFC214C1F4D2078022814D01F
:100DD000607A85F82B00E17885F82A10012823D065
:100DE000A07985F82400E07985F82500207A85F837
:100DF0002600A078D8B100201AE094F829101448F1
:100E000085F82B100129828885F82A200AD00E49FE
:100E100026314B1ECDE90031018F808D5B1E00F025
:100E20004DFDE6E7808A00E0A0882885E1E7012003
:100E300085F823004FF47A7013F03CFFBDE87C4046
:100E40000448FFF7EFBB0000483700207036002051
:100E5000B03A00202000025030B585B01C4604ADE9
:100E600003ABCDE9003502AB00F028FD09490020B5
:100E700081F82B009DF8080001F8240F9DF80C0064
:100E800048709DF810008870204613F013FF05B0DD
:100E900030BD000048370020064A30B1012302F877
:100EA000233FD071084613F005BF002002F8230F3E
:100EB000F7E70000483700200200044800D0012274
:100EC00080F82320084613F0F5BE000048370020C4
:100ED0002DE9F041184B0024069F83F82B4083F83E
:100EE000240083F82510154D83F8262004EB4406D2
:100EF00015F806C0844516D106EB050C9CF801E0F8
:100F00008E4510D19CF802C094450CD10B4804EBDF
:100F100044014830415C304403F8241F4178597043
:100F20008078987003E0641CE4B2182CDED3384655
:100F3000BDE8F04113F0BEBE4837002096B2020172
:100F400041F64C530749984203D840F6980398421B
:100F500001D20B8500E00885012081F82B001046A6
:100F600013F0A8BE4837002010B52B2208490948C5
:100F7000FFF75DFB08490020888000F0E3FF0128AF
:100F800001D101F019F8BDE8104000F073B800007D
:100F900096B10201703600200C31002010B501F02E
:100FA0000BF8012803D1BDE8104000F063B810BD74
:100FB0002DE9F04100252B211D48FFF71FFB1D4C9B
:100FC00000261B48266032461B491438666024F010
:100FD00013FA4FF060086F1CA78000F0C1FF70B1DA
:100FE000BDB25F2DF7D3A4F8048000F0B9FF01284B
:100FF00016D05F20A080BDE8F04100F03BB82DB1D5
:10100000A088401EA08000F0ABFFF4E7A4F80480A5
:1010100000F0A6FF20B92B2208490548FFF707FB7F
:10102000A68000F08FFF0128E5D100F0C5FFE2E7C0
:10103000703600200C3100204D2A000196B10201CB
:1010400010B5054824F060FABDE81040002240F6D3
:10105000B831014824F01ABA5C36002010B5008877
:1010600028B900F0A9FF012801D100F003F8002001
:1010700010BD000010B58CB02B242C220549684609
:10108000FFF7C1FA0020401CC0B2A042FBD30CB055
:1010900010BD00007036002010B500F001FD02F018
:1010A000C1FC24F081FA054806F0F4FD03486830DD
:1010B00007F0F4FBBDE8104001F0D0BCC0390020BF
:1010C00010B505A0FEF7E0FF094902200870BDE851
:1010D000104000F09DB8000050726F766973696F20
:1010E0006E20436F6D706C6574650D0A0000000022
:1010F000703600202DE9F04106461D4690460F4609
:101100001DA0FEF7C1FF24A0FEF7BEFF002406E0ED
:1011100018F8041022A0FEF7B7FF641CE4B2AC423A
:10112000F6D321A0FEF7B0FF05F110000321FFF771
:1011300083FA04463079207070796070306860609E
:10114000F8B2C7F3072141EA0020A060B089A0816E
:10115000E5812A46414604F11000FFF768FA20466F
:1011600023F068FF002C04D02046BDE8F041FFF7D3
:1011700068BABDE8F08100005374617475735F5301
:10118000656E643A206F70636F6465203D2030782F
:1011900025325820000000006D73673A20000000DF
:1011A00025303278200000000D0A00000148007848
:1011B000704700007036002010B501F0F3FB0022EC
:1011C0001049114824F018F9002241F288310E48E4
:1011D00024F05CF90D49087838B1012807D00228BD
:1011E0000BD000200870FFF7D9FEFFF755FFFFF77F
:1011F00035FCBDE81040FFF773BCBDE81040FFF7B9
:101200004BBF00001D2A00019C36002070360020D4
:1012100010B5144914A0FEF737FF1548002202212B
:1012200000F8032F012341704FF6FF714180C18008
:10123000818003814181828141F66413C3810382ED
:1012400040F6980444828382C2820283418382836F
:10125000C18301844284818400F022FCBDE81040F7
:10126000FFF79CBEC1B1020125730D0A000000000A
:1012700070360020022803D802490870FFF78EBE9E
:10128000704700007036002010B54FF40E7106480C
:10129000FFF7B4F9044804210170002180F83010F0
:1012A000A0F8341210BD00007437002000B591B0D2
:1012B00000218DF83C10008880B90AA0FEF7E4FEFA
:1012C0000E480FAB6A4690F83011313001F00CFB3C
:1012D0009DF83C1011B1684600F0D4F811B0002020
:1012E00000BD00004556545F54435F4F54415F5268
:1012F0004543565F4652414D450D0A007437002064
:1013000010B5002000F0AEF8002000F083F80120B6
:1013100000F080F8BDE81040AFF3008010B500F099
:101320001EF810BD70B504460E4615462146022033
:1013300000F05DF83146042000F059F829460520F8
:1013400000F055F870BD70B504460D4621460020EA
:1013500000F04DF82946012000F049F870BD10B5A5
:10136000032202210020FFF771F90322042100204B
:10137000FFF76CF9032205210020FFF767F903222C
:1013800006210020FFF762F9032207210020FFF762
:101390005DF900224FF47A71022024F087FF0022C9
:1013A0004FF47A71042024F081FF00224FF47A7107
:1013B000052024F07BFF00224FF47A71104624F0C0
:1013C00075FF00224FF47A71012024F06FFF022094
:1013D00024F0A8FF042024F0A5FF052024F0A2FF9C
:1013E000002024F09FFF012024F09CFF10BD70B569
:1013F00005460C46062D00DB70BD4BF6803084425E
:1014000000D3441E4BF68030011B284624F078FFA1
:1014100000BFF1E710B502281ED21049104B80B171
:10142000012819D108460A7AC168184628F0A2FC9A
:1014300002210846FFF70FF90220BDE81040FFF730
:101440000FB90A784968184628F094FC0321012056
:10145000FFF701F90120F0E710BD000064B30201BD
:101460000000025010B5002809D106220321FFF721
:10147000EDF8BDE810400B210148FFF7F6B810BDAC
:1014800000800550D0B50E460446114A11A11AA09D
:10149000FEF7FAFD1A480078A0B11A49052060F35A
:1014A000174791F83111384661F3070016492A466B
:1014B00066F30F02097861F30F202146BDE8D040A2
:1014C0000DF028B8BDE8D04010A0FEF7DDBD00004B
:1014D00048B302012E2E5C2E2E5C2E2E5C2E2E5C2E
:1014E000536F757263655C4150505C4150505F545E
:1014F000435F4F54412E630025732025730D0A006E
:10150000293100207437002028310020675F6E7475
:10151000665F54435F4F54415F4374726C5F456E26
:1015200061626C653D3D300D0A000000074810B552
:101530000549016014210171054981600CF07AFAB6
:101540000449087010BD000020BE0201083B0020C5
:1015500059150001243100202DE9F0470446007898
:10156000924D934E40B14FF00008012879D00728E2
:1015700078D008280DD112E1A08802280AD00528C9
:1015800015D008283AD00B2851D00E285CD012284C
:101590006AD009E187A1E0680A6802604A6842608F
:1015A00009890181452181720B20BDE8F087A86E71
:1015B000E16800780870A86EE16840784870A86E0D
:1015C000E16880788870A86EE168C078C870A86EFD
:1015D000E1688088000A0871A86EE16800794871A6
:1015E000A86EE168C088000A8871A86EE1688079F9
:1015F000C87173A0FFF73EF80820D6E7FFF7D6FDC5
:10160000012812D06949072632466C31E068FFF79D
:101610000EF831466FA0FFF72DF815F86C1F73A078
:10162000FFF728F8697874A00AE00020BDE795F874
:101630007860696F3246E068FEF7F9FF314672A0C4
:10164000FFF718F83046B0E7584902252A467931A5
:10165000E068FEF7ECFF294671A0FFF70BF828467B
:10166000A3E70DE097E0FFE75148801C017873A0E5
:10167000FFF700F8E068718801800220208194E77C
:10168000A088022808D005282FD008283ED00E2890
:101690004DD012285FD087E06CA0FEF7EBFF2789C2
:1016A000D4F80C80002667B106E000BF18F80610D9
:1016B00069A0FEF7DFFF761CBE42F7D368A0FEF7F5
:1016C000D9FF607885F87B00207985F87C00227A44
:1016D000364885F865203330E168FEF7A8FF614899
:1016E0000021808901F022FB5EE05FA0FEF7C2FFCF
:1016F00026890025E768002E56D004E0795D56A0C3
:10170000FEF7B8FF6D1CB542F8D31FE059A0FEF7F5
:10171000B1FF26890025E768002E45D004E0795DF9
:101720004DA0FEF7A7FF6D1CB542F8D30EE054A004
:10173000FEF7A0FF2689E76800255EB304E0795D27
:1017400045A0FEF797FF6D1CB542F8D344A000BF3B
:10175000FEF790FF28E04DA0FEF78CFF2789D4F814
:101760000C9000255FB105E019F805103AA0FEF7CE
:1017700081FF6D1CBD42F7D339A0FEF77BFFE06807
:101780000178C90702D00121717001E086F801805B
:101790000088708008E086F8018041A0D8E744A066
:1017A000FEF768FF86F801802089FEE6B03600204B
:1017B0002431002043484152315F56414C55450089
:1017C0000D0A526561642044657669636520496E3F
:1017D000666F3A00526561642044657669636520EE
:1017E0005374617475733A25640D0A004F6E6F6609
:1017F000663A25640D0A00004C696768746E65736B
:10180000733A25640D0A00000D0A52656164204494
:101810006576696365206E616D653A256400000038
:101820000D0A5265616420446576696365207665BA
:101830007273696F6E3A2564000000000D0A5265EC
:10184000616420434343443A256400006368617245
:10185000315F726563763A003078253032582C005B
:101860000D0A0000E830002063686172325F726523
:1018700063763A0063686172335F726563763A003B
:1018800063686172355F726563763A00636861729E
:10189000365F6E74665F656E61626C653A0000006B
:1018A0006C696E6B5F637265617465640D0A00003C
:1018B0006C696E6B5F6C6F73740D0A002DE9F05FDD
:1018C0009A4616460D46DDF828B029F067FA394CDD
:1018D000214629F04DF98146284629F05FFA214634
:1018E00029F046F90546304629F058FA214629F0F4
:1018F0003FF9044615F0FF4F0BD0B4F17C5F0BDAD3
:101900004FF07E51284629F0CBF8214629F05AFAAB
:101910000EE02546A8462FE02146284629F052FA37
:1019200006462946204629F0BBF8314629F020FB1F
:1019300006460121204629F0F0FB314629F018FB2C
:101940001D4F04463946484629F0AAF8024631465A
:10195000204600F035F805464A463146204600F05C
:101960002FF880463946484629F002FB02463146A8
:10197000204600F025F80446104E2846314629F04E
:1019800021FA29F0D3F905463146404629F01AFAE2
:1019900029F0CCF907463146204629F013FA29F000
:1019A000C5F98AF8005001468BF800700B98017059
:1019B000BDE8F09F00FF7F47ABAAAA3E00007F432F
:1019C0002DE9F0478846814615464FF07E5412F1C6
:1019D000FF4F04D32146104629F062F80546214600
:1019E000264F274E8D4203DD284629F0C1FA0546D1
:1019F000284629F029F88A4604460022214B28F07F
:101A00003BFE0022334628F0FBFD08D24146484603
:101A100029F0A4FA394629F0D5F9294625E02046CF
:101A20005146012229F04BFB0022334628F0E8FD05
:101A300002D24046BDE8F087204651460022124BB4
:101A400028F01AFE00224FF0804328F0D9FD13D26F
:101A500029460E4829F08CFA04464146484629F0AA
:101A60007DFA214629F0AEF9394629F0ABF949460D
:101A7000BDE8F04729F014B84846DBE70000C04055
:101A80000000F03F0000184000000840ABAA2A3FC9
:101A9000884201D2084670479042FCD910467047F0
:101AA00070B5444B444C13F8030F607058782070A5
:101AB00093F82600A07058882081D8886081998882
:101AC000E1801989A1815A89E2819D892582DD8978
:101AD00025831D8AE5825D8A65839D8AA583DD8ACB
:101AE00025851D8BE5845D8BE5859D8B6586DD8B6E
:101AF000A5861D8C65875D8CE5879D8CA4F840507C
:101B0000DB1E08B1FFF7C4FF6081208918B1E289AC
:101B1000A189FFF7BDFF2081E08818B1E289A18982
:101B2000FFF7B6FFE080A28B618B208BFFF7B0FF41
:101B30002083A28B618BE08AFFF7AAFFE0822178E5
:101B4000002221B1012904D0022913D106E0A2808C
:101B500010E0208900B96089A0800BE0E18801B91C
:101B6000A189A180A082E08CA084E08DA085608FF7
:101B700020876181A088E080A08AE082A08CE08438
:101B8000A08DE085208F6087987820B1E280A280C8
:101B90009A70FFF703FA618908A0FEF775FA2178B9
:101BA0000FA0FEF771FAA189BDE8704014A0FEF7FE
:101BB0006BBA000070360020B03A00204C696768AC
:101BC000745374617475732E6C696768746E657391
:101BD000732E6C617374203D2025640D0A00000093
:101BE0004C696768745374617475732E6F6E706F8F
:101BF0007765727570203D2025640D0A0000000095
:101C00004C696768745374617475732E6C69676886
:101C1000746E6573732E72616E67655F6D696E2099
:101C20003D2025640D0A000030B4122803D34FF084
:101C3000FF3030BC7047184A12289188938AF8D236
:101C4000DFE800F00A0F09091B0909120916181B21
:101C500021091D24091FECE709B10120E9E7002053
:101C6000E7E7A1F50040E4E730BC184601F00CB806
:101C70001846DEE7B2F92400DBE70846D9E7908D85
:101C8000D7E7108FD5E7B2F92C0001E0B2F93800A0
:101C9000A0F50040CDE70000B03A002030B4122893
:101CA00003D34FF0FF3030BC7047144A1228D1885C
:101CB000D38AF8D2DFE800F00A0F09091B090912DC
:101CC0000916181B09091D09091FECE709B10120B4
:101CD000E9E70020E7E7A1F50040E4E730BC18465B
:101CE00000F0D2BF1846DEE7B2F92600DBE708466F
:101CF000D9E7D08DD7E7508FD5E70000B03A002064
:101D000015481649427801F8032F02784A70028973
:101D10004A804289CA80C2888A8082890A81C289AF
:101D20004A81028BCA81C28A0A82428B4A82828B92
:101D30008A82028DCA82C28C0A83C28D4A83428EF5
:101D40008A83828ECA83428F0A84C28F4A84B0F803
:101D500040008884FFF774B9B03A00207036002044
:101D600070B50546122876D23B4C122DA389E28924
:101D700035D2DFE805F009153434253425343444F0
:101D800050255B3457643459087800B16089E0808D
:101D900081B2A180BDE870400A463048FEF774B9B0
:101DA000088800F500400004000CE08002D01946CD
:101DB000FFF76EFEE080A0800246014628A046E0C4
:101DC0000888E08020B11946FFF762FE014600E076
:101DD0000021E180A1800A4621A0FEF755F9002DDF
:101DE00039D02078022836D1E088002833D06189A4
:101DF000814200D06081BDE87040FFF781BF088854
:101E0000E082A28B618BFFF743FEE0820146A08255
:101E10000A461FA01BE0B1F90010E184A1840A4624
:101E200025A014E0098805E009880CE0088800F581
:101E3000004081B2E185A1850A462CA007E0088810
:101E400000F5004081B2618721870A4630A0FEF785
:101E50001BF9C6E7FFE770BDB03A002070D202015F
:101E60006C696768746E6573732E746172676574EC
:101E7000203D20256420206C696768746E6573734B
:101E80002E63757272656E74203D2025640D0A0004
:101E900074656D702E746172676574203D202564D1
:101EA000202074656D702E63757272656E74203DAE
:101EB0002025640D0A00000074656D702E64656C49
:101EC00074615F746172676574203D202564202011
:101ED00074656D702E64656C74615F637572726594
:101EE0006E74203D2025640D0A0000006875652E83
:101EF000746172676574203D2025642020687565D3
:101F00002E63757272656E74203D2025640D0A0083
:101F100073617475726174696F6E2E746172676536
:101F200074203D202564202073617475726174698A
:101F30006F6E2E63757272656E74203D2025640D80
:101F40000A00000010B54FF480514FF4E020FEF776
:101F500096FB024900208880012010BD0C31002032
:101F600010B513482B218CB080880024401E80B20D
:101F700048436A4600F5E020FEF786FB00206946EC
:101F80000A5C401C2244C0B2D4B22A28F8D3E043F1
:101F90005A309DF82A10C0B2814207D12B226946DF
:101FA0000448FEF730FB01200CB010BD0020FBE719
:101FB0000C3100207036002030B597B000242C2260
:101FC00021496846FEF71FFB002069460A5C401C59
:101FD0002244C0B2D4B22A28F8D3E0431A495A3076
:101FE0001A4C81F82A008DF82A00A0885F280FD3A8
:101FF0004FF4E2254FF480512846FEF740FB6A4635
:102000002B212846FEF745FBFFF79CFF0020A08010
:1020100080B22B21484300F5E02005466A46FEF7D2
:1020200038FB28460BAA2B21FEF72EFB2B220BA9EF
:102030006846FEF733FB10B1002017B030BDA08812
:10204000401CA0800120F8E7703600200C310020F1
:1020500002490A68104408607047000018310020E7
:1020600070B5124C06460D46A06910B1B0F5403F60
:1020700001D9002070BDA06AE26A4119914203D9DA
:102080000BA0FEF701F8F4E761682A46014414A0AA
:10209000FDF7FAFFA16A60682A4608443146FEF758
:1020A00002FBA06A2844A062012070BD74370020A2
:1020B0004F7574206F662052616E6765204375729C
:1020C000204F6666736574203D2025642C204F6682
:1020D000667365744D6178203D2025640D0A00000B
:1020E0006F74615F777269746520746F2025642C4A
:1020F0006C656E202564000010B50446074908A0F1
:10210000FDF7C2FF08496078012201F86C2F487082
:10211000BDE810404FF4C871FEF7BEBE2FB20201F9
:1021200025730D0A00000000B0360020F8B5044603
:10213000124913A0FDF7A8FF6778A678E578124C3E
:10214000012004F86C0FFEF727FE6070277166719E
:10215000A571FEF721FE03464FF4C87000902A4691
:1021600031463846FEF7B4FE01B02B4632463946BA
:10217000BDE8F04005A0FDF787BF000087B202016F
:1021800025730D0A00000000B036002052203D20CB
:1021900025642C2047203D2025642C2042203D2012
:1021A00025640D0A0000000070B50446104911A016
:1021B000FDF76AFFB4F80100104C45BA012004F89D
:1021C0006C0FFEF7E9FD6070002020716071A07156
:1021D000280AA070E5704FF4C87200212846FEF767
:1021E000AFFE32462946BDE8704005A0FDF74CBF62
:1021F00045B2020125730D0A00000000B036002030
:1022000054656D7065726174757265203D2025643A
:102210002C204D617070696E6756616C7565203D4C
:102220002025640D0A00000010B50446104911A0D5
:10223000FDF72AFF6478114A002014B1012C0AD05E
:102240000FE002F87D0F00215070A2F8030001207A
:10225000FEF732FE05E0012102F87D1F5070A2F862
:1022600003002146BDE8104005A0FDF70DBF0000AA
:102270005CB2020125730D0A00000000B036002098
:10228000426C696E6B203D2025640D0A0000000041
:102290002DE9F04104461F46154617A0FDF7F4FE50
:1022A000601C05F0BDFF184C0246E0616168A06942
:1022B000FEF7FEF9012628B114A0FDF7E5FE002087
:1022C000A87003E014A0FDF7DFFEAE700020FEF75B
:1022D000F4F96068FEF7F6F90020FEF7F8F94FF41C
:1022E000807210496068FEF7DEF90020FEF7F4F90D
:1022F0003E70BDE8F081000050726F635F436F6E07
:102300006669726D0D0A0000743700204352432045
:102310004F4B200D0A0000004352432045525220EB
:102320000D0A0000A738002070B506461D46144669
:1023300009A0FDF7A9FE0D48B2780021008BA0701E
:10234000000AE070052321716171A371E1712172AE
:1023500008206272287070BD50726F635F476574A9
:102360004677496E666F0D0A00000000800000206D
:102370002DE9F041064698460C4621A0FDF784FE63
:10238000A41EA5B2244CB4F83402FF282FD8284448
:1023900004F23317FF280FD820A0FDF775FEB4F81C
:1023A00034022A463844B11C04F50D74FEF73FF997
:1023B0002088284420801EE026A0FDF765FEB4F8A2
:1023C0003402B11CC0F580723844FEF730F94FF486
:1023D0008077A762B4F83402C0F58070291A3044BF
:1023E00089B2801CFFF73CFEA4F8347203E0294652
:1023F000B01CFFF735FE002188F80010BDE8F08121
:1024000050726F635F496D61676555706461746593
:102410002E2E2E0D0A000000743700206773745FA3
:1024200041707054434F544154422E466972737444
:1024300050616765526563656976654C656E202BF2
:10244000205061636B65744C656E203C20323536DC
:102450000D0A0000656C7365206F66206773745FFA
:1024600041707054434F544154422E466972737404
:1024700050616765526563656976654C656E202BB2
:10248000205061636B65744C656E203C203235369C
:102490000D0A000070B504460E490FA0FDF7F4FDCB
:1024A00065780F4C85B1012004F86C0FFEF774FCC1
:1024B000607000215FF00100FEF7FEFC2946BDE8D8
:1024C000704008A0FDF7E0BD002004F86C0F014645
:1024D0006070F1E724B2020125730D0A00000000CC
:1024E000B03600204F6E4F6666203D2025640D0AF1
:1024F0000000000010B504460D490EA0FDF7C4FD14
:10250000647814B1012C09D00BE0FEF72DFD0022F8
:102510004FF49671094822F0B9FF02E00120FEF75E
:10252000A9FE2146BDE8104005A0FDF7ADBD0000A5
:1025300067B2020125730D0A000000003437002045
:10254000526573756C74203D2025640D0A000000EF
:1025500010B51C4608A0FDF797FD0020207002462C
:1025600009490A4822F048FFBDE8104001224FF413
:102570007A71064822F08ABF50726F635F526573AA
:1025800065740D0A000000009D290001AC3900208F
:102590002DE9F04707469946164636A0FDF774FD2B
:1025A000384C0025A562E562A4F83452A560E560C8
:1025B00025616561A561E5612562656201F0AEFA9C
:1025C0006060B81C05F02CFEA061E06278780127FD
:1025D0004FF00308012809D0022809D02AA0FDF7EE
:1025E00053FD86F8028089F8007011E02CA000E00D
:1025F00030A0FDF749FD35A06168FDF745FD37A026
:10260000A169FDF741FDA069B0F5543F05D9B77048
:10261000BDE8F0470020FEF75FB8B5704FF0030843
:102620000120FEF759F8A0694FF4807600F6FF709C
:10263000070B3F0335010020FEF73FF86068304488
:10264000FEF740F80020FEF742F806F58076AE422D
:10265000F1D32E4606E0606831462844FEF70FF8B5
:1026600005F58055BD42F6D3A8F1020089F80000B7
:10267000BDE8F08750726F635F53746172744F549A
:10268000410D0A00743700204F54412066696C6583
:1026900020747970653A556E6B6E6F770D0A000085
:1026A0004F54412066696C6520747970653A4150D9
:1026B000500D0A004F54412066696C652074797092
:1026C000653A50726F66696C650D0A004F54414659
:1026D0007741646472A3BA25640D0A004677496E97
:1026E000666F4E65772E73697A65A3BA25640D0A05
:1026F00000000000F8B506461F4615461BA0FDF772
:10270000C3FC701C05F08AFD1E4C6084F01C103464
:1027100005F084FD2082701D05F080FDA082002060
:10272000A075317AE175184905220023098B618073
:102730002080A280A97061880C22090AE9702178A2
:1027400029712188090A69712179A971A188090A69
:10275000E97128726872082139704FF4FA7000909C
:1027600094F82101114606F039FAF8BD50726F63F2
:102770005F53796E63467756657273696F6E0D0AA3
:1027800000000000743700208000002010B50446CF
:102790000A490BA0FDF778FC6478012C07D1FEF7FD
:1027A000E3FB00224FF49671074822F06FFE2146AA
:1027B000BDE8104005A0FDF767BC000076B202013D
:1027C00025730D0A00000000343700205265737530
:1027D0006C74203D2025640D0A0000002DE9F843AB
:1027E00007460025994690460E468DF8005029A0D0
:1027F000FDF74AFC31462CA0FDF746FC002405E01D
:10280000395D2FA0FDF740FC641CE4B2B442F7D35D
:102810002AA0FDF739FC3C78072C39D8022E37D393
:10282000032C07D0042C05D0052C03D0FEF7BEFCEA
:1028300001282DD1244850F824C0BCF1000F12D03B
:102840006B46424631463846E047032C0AD0042CFA
:1028500008D0052C06D007252A461C494046FDF71E
:10286000E6FE00E0002589F80050294618A0FDF793
:102870000BFC002407E000BF18F8041010A0FDF7BF
:1028800003FC641CE4B2AC42F6D30CA0FDF7FCFBE5
:10289000BDE8F88350726F746F636F6C50726F6332
:1028A0006573730D0A00000052784C656E203D2060
:1028B00025642C527844617461203D200D0A00008B
:1028C000253258200000000008B202011C37002009
:1028D00054784C656E203D2025642C5478446174F6
:1028E00061203D20000000002DE9F84F1E4F00261A
:1028F00081468DF8006097F830009A461546884664
:10290000012825D099F8004018A02146FDF7BCFB0E
:10291000082C1BD8B8F1000F18D01B4850F824C061
:10292000BCF1000F10D06B462A4641464846E047AE
:1029300097F830008021012810D09DF8000018B1D0
:10294000801C2970C6B26C708AF80060BDE8F88FF0
:102950000724214605A0FDF797FBDBE70226297037
:1029600004206870F0E700007437002050726F7424
:102970006F636F6C50726F6365737320436D643A5D
:1029800025640D0A0000000028B30201024801215D
:10299000808900F0CBB90000E83000200020FDF76E
:1029A00037BE000010B50D4C0DA06178FDF76CFB33
:1029B0006078042805D2401C6070BDE81040FEF726
:1029C000EDBA21780AA0FDF75FFB22F083F9FEF74C
:1029D000CBFABDE810400020FDF71ABE703600208B
:1029E0005265736574436E74203D2025640D0A00A2
:1029F00023232323232323232323232052657365A7
:102A0000745F50726F636573732C2050726F7669B8
:102A100073696F6E203D2025640D0A0010B505A076
:102A2000FDF732FB084900204870BDE81040FEF772
:102A3000B5BA00005265736574436E7420436C65CB
:102A400061720D0A0000000070360020024800216B
:102A5000008800F06BB90000E830002010B5074C8A
:102A60002078FF2809D10748054901600821017134
:102A7000054981600AF0DEFF207010BD283100207A
:102A800070C00201783B00208D2A00012DE9F84F2B
:102A90000446007848B1484E4FF00008012817D08E
:102AA00007287DD0082805D17EE0A088022802D022
:102AB000052802D07DE041A000E048A0FDF7DAFD46
:102AC00064224E49E068FDF7B2FD6420BDE8F88F4E
:102AD0004B4DA08805F13101DFF828B14FF0010A14
:102AE0000091022804D005280AD0062837D060E0DB
:102AF00045A0FDF7BFFD85F830A01EE0FF201FE0D8
:102B000049A0FDF7B7FD2789D4F80C90002667B1DE
:102B100006E000BF19F806104BA0FDF7ABFD761CD0
:102B2000BE42F7D34AA0FDF7A5FD607885F83101D4
:102B3000207985F8320185F830802089FF28DDD89A
:102B4000C2B285F83021E1680098FDF770FDBBF84E
:102B50001800002100F0EAF895F83001B6E73DA032
:102B6000FDF788FD2789D4F80C9000255FB105E0BA
:102B700019F8051034A0FDF77DFD6D1CBD42F7D39B
:102B800033A0FDF777FDE0680178C90703D086F828
:102B900001A002E004E086F801800088708008E06F
:102BA00086F8018031A002E086F8018033A0FDF7AD
:102BB00061FD20898AE70000283100207265616488
:102BC0002054435F4F54415F4944585F444154414E
:102BD0005F56414C55450D0A000000007265616466
:102BE0002054435F4F54415F4944585F4354524C13
:102BF0005F56414C55450D0A00000000143B002073
:102C000074370020E83000207772697465205443DF
:102C10005F4F54415F4944585F444154415F5641BE
:102C20004C55450D0A0000007772697465205443C5
:102C30005F4F54415F4944585F4354524C5F564183
:102C40004C55450D0A0000003078253032582C00D4
:102C50000D0A000054435F4F54415F4E4F544946A4
:102C6000495920454E41424C450000006C696E6B4D
:102C70005F637265617465640D0A00006C696E6B58
:102C80005F6C6F73740D0A0070B50C4D6C8B001B7C
:102C9000C0EB004028F06AF80646A88B001B28F01D
:102CA00065F80146304627F063FF4FF0474127F0B3
:102CB000F7FE28F01FF800B270BD0000B03A002007
:102CC00070B5FEF775F9FEF7DFFAFEF775FAFEF755
:102CD00075F80B4D002400BF04EB440605EB86009D
:102CE000406822F049FB25F82600FF2803D1214641
:102CF00004A0FDF7C9F9641CE4B2032CECD370BD49
:102D0000E83000204150505F5461736B437265613D
:102D10007465207563496E646578203D20256420C4
:102D20004572726F72210D0A000000000EB5ADF8F9
:102D3000001000210191ADF80810694622F0ECFA6C
:102D40000EBD10B50446FDF7EFFF2046BDE810406C
:102D5000FFF77EB930380A2801D2012070470020E1
:102D60007047002901D026F002BD7047F8B5104E1B
:102D70008DF800008DF801108DF80220D6F8801033
:102D80001446054609B168468847022D0ED1002C2D
:102D90000CD1707A002809D104F032FA002805D14C
:102DA00002210320FDF79DFC00F02AF9F8BD000088
:102DB0006844002008B58DF8000006488DF8011021
:102DC0008DF80220D0F88410002901D06846884789
:102DD00008BD0000684400201CB58DF800000548BF
:102DE0008DF801100192D0F89010002901D06846AA
:102DF00088471CBD6844002000B585B00B228DF8C3
:102E0000051009498DF800208A78824201D10020FE
:102E100000E001208DF80400D1F89810002901D0BD
:102E20006846884705B000BD6844002000B5417879
:102E300089B0090748D50F218DF81010CDF814D0AE
:102E4000427802F00701032908D0012908D052076F
:102E500016D0022916D0042916D018E0042114E057
:102E600002F07001202909D0302903D0702903D045
:102E700008210AE0002108E0012106E0022104E027
:102E8000102102E0142100E020218DF80010D0F87C
:102E90000210CDF80110C188ADF80510017A8DF847
:102EA0000710417C8DF80910017C8DF8081000F1A5
:102EB0001A010391008BADF80A000448D0F898106D
:102EC000002901D004A8884709B000BD684400204B
:102ED00000B585B010208DF8000005488DF804106D
:102EE000D0F89810002901D06846884705B000BD89
:102EF0006844002000B585B017228DF804008DF8D5
:102F000000208DF80510002906D00448D0F898104C
:102F1000002901D06846884705B000BD68440020FC
:102F200000B585B016218DF8001007498DF8040012
:102F3000084401228272D1F89810002901D0684615
:102F4000884705B000BD0000684400200EB5064B60
:102F5000D3F88C3033B1CDE900018DF808206846F4
:102F600098470EBDFEE700006844002010B50446F7
:102F700086B003208DF800001022214601A8FDF73D
:102F800056FB22780548002111540A38D0F89810D1
:102F9000002901D06846884706B010BD7244002061
:102FA00000B585B018218DF8001007498DF8040090
:102FB000084401228272D1F89810002901D0684695
:102FC000884705B000BD00006844002010B50446E5
:102FD00086B004208DF800001022214601A8FDF7DC
:102FE00026FB22780548002111540A38D0F89810A1
:102FF000002901D06846884706B010BD7244002001
:1030000010B50849084C01204872D4F8140104F5A1
:103010008A74FDF76BFB0020A061BDE8104026F02C
:10302000B7BF00006844002000000C5000B585B018
:1030300005218DF800100088ADF804000448D0F890
:103040009810002901D06846884705B000BD0000EF
:103050006844002000B585B013208DF80000087882
:103060008DF804000448D0F8981009B168468847E4
:1030700005B0002000BD0000684400202DE9F041AB
:103080000C461646054601796FF007074FF6FF7CA0
:1030900013E000BF286807EBC10210440288A24277
:1030A00001D0624507D14568032231462046A84732
:1030B000C0B2BDE8F081491EC9B20029EAD10020A2
:1030C000F7E7000000B585B0042A11D111228DF870
:1030D00000208DF804000868CDF805004868CDF898
:1030E00009000448D0F89810002901D068468847A4
:1030F00005B000BD684400202DE9F0413B4C94F838
:103100002200002870D0208C21460A3082B222840E
:10311000E38B8F8ACE8A0D8B888B498B9A4209D399
:103120000022228484F822206781A681E581218201
:10313000608250E0B4F800C0674506D3A7EB0C07E7
:103140005743B7FBF3F7674406E0ACEB0707574379
:10315000B7FBF3F7ACEB070767816788BE4205D37F
:10316000F61B5643B6FBF3F63E4404E0BE1B564343
:10317000B6FBF3F6BE1BA681A688B54205D3AD1BF0
:103180005543B5FBF3F5354404E0751B5543B5FBDA
:10319000F3F5751BE581E588A94205D3491B514329
:1031A000B1FBF3F1294404E0691A5143B1FBF3F197
:1031B000691A21822189884205D3401A5043B0FB05
:1031C000F3F0084404E0081A5043B0FBF3F0081A87
:1031D0006082218A80B2FEF7B6F8E289A18960890F
:1031E000BDE8F041FEF79EB8BDE8F0814837002009
:1031F000F8B5C14DC14C4FF00057002638B1022838
:103200007ED003287DD004287CD1FDF774FAA08DF0
:10321000400403D594F84B00552813D00022022116
:103220001046FDF713FA002203211046FDF70EFAAF
:103230004FF40051B248FDF7E1F9FDF761FA0128BA
:1032400009D031E0072206210220FDF7FFF907220D
:1032500011460220EAE7AB49AB48AC4A01E008C896
:1032600008C19042FBD30120FDF74FFAA849A948B5
:10327000A94A01E008C808C19042FBD3A748A84961
:1032800000E040C08842FCD3A649A748A74A01E015
:1032900008C808C19042FBD3A549A648A64A01E048
:1032A00008C808C19042FBD3A4486E700760FDF7C0
:1032B00031FA0021481FFDF7CEF901221921002023
:1032C000FDF72DFAC0B240F0F003012219210020D1
:1032D000FDF72AFAEF2301225A210020FDF724FAF4
:1032E00002230122C3210020FDF71EFA0023012240
:1032F000AA211846FDF718FA102301226B2102E0DB
:1033000069E0C2E0F7E00020FDF70EFA0423012295
:1033100054210020FDF708FAE87830B100210B2095
:10332000FDF799F90B20FDF79BF9202080F3118818
:1033300008218348FDF799F962B626F0FFFDFDF7F5
:10334000F8F928B10220E0834FF47A702084608479
:1033500094F84900032802D0E08B801CE08326F01B
:10336000A8FE94F82C00C0F38110022808D107228F
:103370000521FDF76BF971494FF08070F431086059
:10338000A08D000504D50420FDF7D8F9FDF7DBF981
:10339000FDF7DEF9FDF7E1F96B496A4808606C4911
:1033A0006A4808606C496B4808606D496B48086062
:1033B0006D496C4808606E496C4808606E496D48FC
:1033C00008606F496D4808606F496E480860BDE845
:1033D000F84022F0AABAE87810B10B20FDF740F9C6
:1033E00026F058FE2878B8B1A87840F00100A870FF
:1033F0004FF40040A7F8AE01A08D000402D5606B29
:10340000000A606361480168C968026821F480713C
:10341000D1608DF800602AE0B4F844100020FDF778
:10342000A1F9B4F8440000EB80004000FDF79FF9DB
:10343000202302223B210020FDF776F90C20FDF726
:1034400096F9002302223B211846FDF76DF904226C
:103450007C210020FDF763F901460020FDF78CF97F
:10346000CAE700BF9DF80010491C8DF800109DF8B8
:1034700000100A29F6D30168C968006841F4807118
:10348000C160BDE8F84026F029BD01206870024601
:1034900050210020FDF743F9C5B23D48D0F8140192
:1034A000FDF724F9A5F10A0301228B210020FDF785
:1034B0003BF9A5F1090301228D210020FDF734F924
:1034C000A5F108030122CC210020FDF72DF94FF0D2
:1034D0008040016841F080410160FDF752F9A08D04
:1034E000C00502D472B686F31188BDE8F840022107
:1034F0000B20FDF7B0B8F8BDCC33002080000020D1
:1035000000200040600B002010D702014CD70201C0
:10351000E830002098FC02010C0203015C36002018
:10352000844800209C0B00204CD7020198FC02012B
:103530000000002090D6020110D7020108ED00E043
:1035400000800550299900015C010020DD41000147
:10355000600100208763020164010020CD60020148
:10356000B8350020AD1E0020580100208D16002027
:103570006C01002027170020700100205D10002042
:10358000740100206316002068010020C0FC0100C7
:1035900000000C5070B52C4E054633680DE098794C
:1035A000022809D1D9896A8803F10C00914203D11C
:1035B0008188AA88914203D01B68002BEFD10EE0CE
:1035C0006BB169784FF01002C90702D005F11601FE
:1035D00000E0A91DBDE87040801DFDF728B824203B
:1035E0000121FDF729F8202181800221817101212B
:1035F000C171164981600446182100F80C1F6978D2
:103600004170A98881806988418069784FF01002F3
:10361000C90702D005F1160100E0A91D801DFDF7C4
:1036200006F8316859B10846A37902E002460068FD
:1036300010B185799D42F9D3884202D1216034606E
:1036400070BD1460206070BDC0330020FAFAABBAC0
:103650002DE9F0412D4E0546002130680EE08279BB
:10366000052A09D1C3896C8800F10C02A34203D159
:1036700052686B689A4204D0014600680028EED177
:1036800008E038B111B102680A6001E001683160F8
:10369000FCF7D7FF287801210F3020F003073846C8
:1036A000FCF7CAFF3F1F044687800520A071012058
:1036B000E0711748A06004F10C00297800F8011BA4
:1036C000697800F8011B698820F8021B696802C04C
:1036D00010496A880A802A7805F10801083AFCF73F
:1036E00092FF316859B10846A37902E002460068AA
:1036F00010B185799D42F9D3884203D121603460AD
:10370000BDE8F08114602060FAE70000C0330020BB
:10371000FAFAABBA9E33002070B5294E05463368DD
:1037200009E09879012805D1D9896A8803F10C004C
:10373000914203D01B68002BF3D10EE06BB1697886
:103740004FF01002490702D505F1140100E0291DD0
:10375000BDE87040001DFCF76ABF20200121FCF786
:103760006BFF1C21818001218171C171154981602C
:103770000446142100F80C1F697841706988418063
:1037800069784FF01002490702D505F1140100E0F5
:10379000291D001DFCF74BFF316859B10846A3797C
:1037A00002E00246006810B185799D42F9D3884253
:1037B00002D12160346070BD1460206070BD0000D3
:1037C000C0330020FAFAABBA2DE9F0413B4D044674
:1037D00002272A6815E09079032811D1D0896388DF
:1037E00002F10C0198420BD148686368984207D1F6
:1037F00008892389984203D148896389984203D074
:103800001268002AE7D113E092B1207B0873607B35
:103810004873A07B8873E07BC8732089B7EB903F27
:1038200004D1103410311DCC81E81D00BDE8F081B9
:10383000207801210F3020F003063046FCF7FCFE13
:10384000361F8680032181710121C1711C4981606D
:1038500022780273627842736288C2816268026170
:10386000228982826289C282227B0276627B00F197
:103870000C014276A27B8A73E27BCA732289B7EB82
:10388000923F07D104F11002E4694CCACC611031B7
:1038900081E84C002A685AB11146847902E00B464F
:1038A000096811B18E79A642F9D3914202D1026022
:1038B0002860BBE718600160B8E70000C033002053
:1038C000FAFAABBA2DE9F041254F0546386806E013
:1038D000817919B9427B69788A4203D0006800284F
:1038E000F6D107E030B129462A78BDE8F0410C3026
:1038F000FCF79DBE287801210F3020F003063046EA
:10390000FCF79AFE361F8680002604468671012049
:10391000E0711448A06004F10C002A782946804622
:10392000FCF785FE26603868011E13D08A7982B9BB
:1039300000F10C0298F8013006E00546006830B14D
:10394000827922B900F10C0252789A42F5D388426A
:1039500003D121603C60BDE8F0812C602060FAE773
:10396000C0330020FAFAABBA2DE9F0412B4D0646E0
:10397000002128680EE08279042A09D1C38974885D
:1039800000F10C02A34203D1526873689A4204D03A
:10399000014600680028EED108E038B111B1026894
:1039A0000A6001E001682960FCF74BFE30780121D4
:1039B0000F3020F003073846FCF73EFE3F1F044659
:1039C00087800420A0710120E0711548A06004F1F7
:1039D0000C00317800F8011B717800F8011B718828
:1039E00020F8021B716802C0327806F10801083A1B
:1039F000FCF709FE296859B10846A37902E002469E
:103A0000006810B186799E42F9D3884203D12160C3
:103A10002C60BDE8F08114602060FAE7C03300201C
:103A2000FAFAABBAF0B529488BB0D0E9005608A82D
:103A300005F0C8F82648089940F8051FBDF824107D
:103A400081802349491D0878401C0870214821F0D5
:103A500043FB0821084621F06BFB0621202021F0C2
:103A600031FB20216846FCF7C9FD06208DF80000D7
:103A700009208DF8010018A069460068CDF8020001
:103A800000208DF80600072021F05CFB104F002479
:103A900017F11C0704EB440007EB800020F0D4FC76
:103AA000641CE4B2132CF5D3094A4FF4F823521DD9
:103AB0003146284621F0FAF900F018F800220849AA
:103AC000084821F099FC0BB0F0BD000080C1020154
:103AD0003C310020F1480201414243440000000013
:103AE0001D670201AC3B002021F0A8B90022024969
:103AF000024821F081BC0000E93A0001983B002017
:103B000010B50446044821F0FFFC2146BDE81040F2
:103B10000022014821F0BABC983B002004494FF034
:103B200080700968896909B1002070474068704752
:103B3000C0FC010000B585B00E218DF804000548D9
:103B40008DF80010D0F89810002901D068468847F9
:103B500005B000BD6844002000B585B00D218DF88A
:103B6000001041788DF804104188ADF806100179F5
:103B70008DF80810D0F80610CDF809104189ADF87D
:103B80000D10007B8DF80F000448D0F89810002924
:103B900001D06846884705B000BD00006844002099
:103BA0000D4810B5808D00040CD50C4CD4F81401D0
:103BB00004F58A74FCF79AFD0020A061BDE810406E
:103BC00026F0E6B90648C16F09B100208847BDE874
:103BD0001040002003F044BD8000002000000C5085
:103BE0006844002000B585B00C218DF8040005481C
:103BF0008DF80010D0F89810002901D06846884749
:103C000005B000BD6844002000207047064910B58B
:103C10000020487200F070F9002000F06DF9BDE856
:103C20001040002000F0BAB96844002000B585B00B
:103C30000A228DF800208DF8040008788DF8050020
:103C400048788DF8060006480A7800F8742F4978FD
:103C50004170416A002901D06846884705B000BD1F
:103C6000684400200249896F002900D00847704746
:103C7000684400207047000000B585B007228DF829
:103C8000040006488DF800208DF80510D0F8981033
:103C9000002901D06846884705B000BD684400206F
:103CA00000B585B008228DF800208DF80400088842
:103CB000ADF806004888ADF808008888ADF80A001D
:103CC00007480A8820F86E2F4A88428089888180B8
:103CD000D0F82A10002901D06846884705B000BDF9
:103CE0006844002000B585B009228DF8040006481C
:103CF0008DF800208DF80510D0F89810002901D01B
:103D00006846884705B000BD68440020024900EBC2
:103D1000400011F830007047384400202DE9F04190
:103D2000884601465848002514468378434503D009
:103D3000C378434500D10125534E0222303EA429C9
:103D400025D00027A02938D0A82901D0A7297DD1C6
:103D50002844FF210771817005EB450016F83010EB
:103D60004A070DD521F0040106EBC00506F8301016
:103D7000686828B100F0C0F86868FCF762FC6F6002
:103D800022464146BDE8F0410020FFF713B814B1C8
:103D90002844027114E028440421017105EB450018
:103DA00016F83010CA076CD021F0010106F8301067
:103DB0002846BDE8F04100F0ABBC284434B107719F
:103DC00021464046BDE8F041FFF716B80271224691
:103DD00041460020FEF7CAFF05EB4504B04616F841
:103DE0003410080710D521F0080108EBC40608F8C4
:103DF0003410B16841B131F8022B284600F0CCFAFA
:103E0000B068FCF71EFCB76018F83410C80610D56F
:103E100021F0100108EBC40608F83410F16841B134
:103E200031F8022B284600F085FBF068FCF709FC0E
:103E3000F76018F83410480612D521F0400108EB5D
:103E4000C40608F83410316951B100E019E031F8C6
:103E5000022B284600F020FB3069FCF7F2FB3761AB
:103E600018F8341040468A060BD521F0200100F8DE
:103E7000341008EBC400818A2846BDE8F04100F008
:103E8000A7BBBDE8F08100006844002000EB4002C1
:103E9000034810F832300B4300F83230704700000E
:103EA0003844002030B40B4612490324A4280CD017
:103EB0000025A22814D0A82801D0A7280ED1CD54BF
:103EC00030BC19460220FEF775BF2AB1CC5430BC75
:103ED00011461846FEF7FCBF0520C85430BC704799
:103EE0002AB1CD5430BC19460220FEF73FBFCC5456
:103EF000F8E700003D35002040B101788A0601D581
:103F000000F0D0B8C90601D500F002B800F060B8E2
:103F100010B504462823032207214FF45A60FCF70A
:103F200035FCA0210170002242700121017141770E
:103F3000637A80F821302378112B04D0122B05D01E
:103F4000142B0FD012E0C18041710FE00521C18018
:103F50004271D4F80210C0F80A10E188C181217AB8
:103F6000017403E04FF48171C1804271617A0329C9
:103F700002D1417780F82110E17B4172A17B01776A
:103F800061894161A189816180F82020217C80F8CC
:103F90002210BDE81040FCF7FEBB000010B50B4935
:103FA0000446062008700223032207214FF45A60BA
:103FB000FCF7ECFB2CB121880180BDE81040FCF738
:103FC000EABBA221017000214170F6E70445002000
:103FD00070B504462823032207214FF45A60FCF7EA
:103FE000D5FBA02101700325012300215CB10171E3
:103FF0004377A27D0226032A11D282B1012A10D072
:10400000022A10D010E041700171C5804172072270
:104010000277437741714FF4707141613DE0437124
:1040200002E0467100E041712278012A0AD0022A9A
:104030000AD0052A0AD0042A0CD0032A0CD0062A5A
:104040000CD00DE0C5800BE0052200E00D22C280FF
:10405000417105E0C68003E0C18001E0C180457187
:10406000627832B1012A04D0022A04D0032A04D093
:1040700004E0417002E0437000E04670D4F80210A2
:10408000C0F80A10E188C181217A0174A17B01770F
:10409000E17B417261894161A1898161BDE8704024
:1040A000FCF779BB10B504462823032207214FF4FF
:1040B0005A60FCF76BFBA0210170002141700222C5
:1040C00002712278212A02D0222A02D003E0C18084
:1040D00001E00422C2804171D4F80220C0F80A2015
:1040E000E288C281227A02744172A27B02770122A5
:1040F000427762894261A289826180F82010617AE8
:1041000080F82110217C80F82210618A8184A18AA4
:10411000C184BDE81040FCF73EBB000010B504466A
:1041200002230322072140F6A350FCF72FFBA7210F
:1041300001700A4944708A78A24202D0CA78A24229
:1041400001D1074A03E08979A14205D1054A2146F8
:10415000BDE8104000F026B810BD00006844002003
:104160001D3D00014D43000170B506460D460C484B
:10417000FCF716FB040008D0E3681BB1217A2A463D
:10418000304698472046FCF75CFA0548006800284E
:1041900004D04068BDE87040FCF7FDBA70BD000077
:1041A000343500202DE9F0410E460746154603211F
:1041B0001020FCF741FA067247600446C5600648C5
:1041C000006810B93846FCF7E6FA2146BDE8F04130
:1041D0000148FCF7EABA00003435002070B57821B8
:1041E0001448FCF70BFA134CFF20A070E070124843
:1041F000FCF7E0FA11490320FCF7E1FA0021032063
:10420000FCF76FFA0EA504F134002ECD80E82E00E5
:10421000102084F8330003F093FA012303220721CE
:1042200040F60250FCF7B2FA01210170BDE870407F
:10423000FCF7B1BA6844002034350020DCC5020127
:10424000424C4520484944204B4244204D49434577
:1042500000000000F0B50446000A00261F0A85B0E1
:104260000D460C2829D00E280BD0C82838D0A4F62B
:10427000027028283CD8204603F026FF002005B015
:10428000F0BDA4F61260092805D80A46214619484F
:10429000FEF7F4FE0646A4F56060113803D0B4F5CD
:1042A000636F05D024E029463846FFF7F9FC1FE08C
:1042B00029463846FFF7BAFC1AE0A4F540600238F8
:1042C00016D112208DF800008DF804700888ADF822
:1042D00006000948D0F8981051B16846884707E0B1
:1042E0000648006820B10A462146FEF7C7FE06468A
:1042F0003046C4E7C4C3020168440020A033002054
:1043000030B4114B0224A4280BD00025A32812D0CE
:10431000A82801D0A7280CD15D7030BC0320FEF77F
:1043200049BD22B15C7030BC1046FFF703BC0420CD
:10433000587030BC704722B15D7030BC0320FEF76E
:1043400015BD5C70F9E700006844002030B4114BE3
:104350000224A4280BD00025A12812D0A82801D01F
:10436000A7280CD1DD7130BC0120FEF723BD22B19E
:10437000DC7130BC1046FFF735BC0420D87130BC6E
:10438000704722B1DD7130BC0120FEF7EFBCDC715B
:10439000F9E70000684400202DE9F04114460F467B
:1043A0000546FFF7B3FC40071CD508212846FFF758
:1043B0006DFD1E4805EB450100EBC105A86818B16D
:1043C000FCF73FF90020A8600321A01CFCF734F99A
:1043D000A8600480A86822463946BDE8F041801CE8
:1043E000FCF725B91148303046193079022801D040
:1043F000042819D1201D83B20322072140F6A650BC
:10440000FCF7C4F90546A9202870B07868702246E8
:104410003946281DFCF70BF96C80B1782846BDE8B9
:10442000F041034AFFF7BEBEBDE8F08138440020EA
:104430001D3D000170B5044616480D462044017923
:10444000022908D0002924D1FF2181702846BDE827
:104450007040FFF751BD8078FFF760FE04212046D1
:10446000FFF714FD0B4804EB4401303800EBC104A6
:10447000606818B1FCF7E5F800206060032118209F
:10448000FCF7DAF829466060BDE870401822FCF7B6
:10449000CEB870BD684400202DE9F04114460F46A7
:1044A0000546FFF733FC40071CD540212846FFF79F
:1044B000EDFC1E4805EB450100EBC105286918B16C
:1044C000FCF7BFF8002028610321A01CFCF7B4F81A
:1044D00028610480286922463946BDE8F041801CE5
:1044E000FCF7A5B81148303046193079022801D0C0
:1044F000042819D1201D83B20322072140F6A650BB
:10450000FCF744F90546AB202870B0786870224665
:104510003946281DFCF78BF86C80B1782846BDE839
:10452000F041034AFFF73EBEBDE8F0813844002069
:104530001D3D00012DE9F04114460F460546FFF7E9
:10454000E5FB40071CD510212846FFF79FFC1E48BD
:1045500005EB450100EBC105E86818B1FCF771F8FF
:104560000020E8600321A01CFCF766F8E8600480E6
:10457000E86822463946BDE8F041801CFCF757B890
:104580001148303046193079022801D0042819D159
:10459000201D83B20322072140F6A650FCF7F6F84F
:1045A0000546AA202870B07868706C80224639468B
:1045B000281DFCF73CF8B1782846BDE8F041034AD5
:1045C000FFF7F0BDBDE8F081384400201D3D00013B
:1045D00070B5064615480D468419207902280FD17A
:1045E0003046FFF793FB40070BD520213046FFF7FD
:1045F0004DFC0E4906EB4600303901EBC0008582C8
:1046000070BD3A230322072140F6A150FCF7BEF803
:10461000A4210170A1784170458000210171A17829
:10462000034AFFF7BFFD0320207170BD68440020DE
:104630001D3D00010FB42DE9F0419DF81840062CF6
:1046400053D2DFF8B08018F8040003284DD13A2384
:104650000322072140F6A150FCF798F8A42101702D
:1046600044709DF8191081709DF82A10C1700021C6
:1046700081802027C7804FF0140CA0F808C0BDF837
:104680002260C681BDF824500582BDF826304382E1
:10469000BDF8282082820221C1820183468385835E
:1046A000C3830284418481844781A0F80CC0C684FE
:1046B000058543858285C1850186DDF81A10C0F81D
:1046C0003210BDF81E10C1869DF8201080F83810F9
:1046D000094A2146FFF766FD214608A0FBF7CAFFFD
:1046E000042108F8041088F80640BDE8F0015DF8E0
:1046F00014FB00003D350020A53E0001737461727B
:10470000745F636F6E206163745B25645D0D0A00E6
:10471000024610B511488418207904280CD00328CB
:1047200004D01046FFF7F2FA800616D5BDE8104017
:1047300001211046FFF7AABB02230322072140F6FE
:10474000A250FCF723F8A5210170A1784170A1784F
:10475000034AFFF727FD0520207110BD68440020A3
:104760001D3D000170B50446062814D20A4D285D8F
:10477000052810D102230322072140F6A250FCF79E
:1047800005F8A52101704470044A2146FFF70AFD8F
:1047900006202855AC7170BD3D350020A53E0001B6
:1047A00010B50A7901210BF05BFA002010BD70B53D
:1047B0000D46044607F04EFB6988884200D3084640
:1047C000014620460BF01CFB012120460AF098FE12
:1047D000012801D0412200E00022012120460BF0F7
:1047E0003FFA002070BD10B5044601210AF088FE92
:1047F0000C2803D00F2810D0412208E001212046C8
:104800000AF08CFE41890089814206D052220121A2
:1048100020460BF025FA002010BD0022F7E72DE915
:10482000F0470F46824601210AF06AFE032801D0B4
:10483000402243E0012150460AF070FE4FF6FF7916
:1048400004460026C84624E0012150460AF06EFEC8
:1048500063780146062202EB0A2240F604409B1DC3
:10486000FBF794FF0546B819B61C8188F2B2B81858
:104870002980818869806078921C2871D6B2884628
:10488000627804F10801681DFBF7D1FE2846FBF7AA
:1048900082FF7888B042D7D808F1010081B2E08861
:1048A0004A46904200D202468A4206D329B1A180EC
:1048B000012150460BF054F904E00A220121504630
:1048C0000BF0CEF90020BDE8F0872DE9F0470F4648
:1048D000824601210AF014FE072801D0402247E059
:1048E000012150460AF01AFE81467878012804D04A
:1048F0001020002580462C4623E00220F9E7012104
:1049000050460AF013FE0146062202EB0A2208F185
:10491000040340F60740FBF739FF06467819AD1C43
:104920008488EDB23480791986F802804246F01C02
:10493000091DFBF77CFE05EB0800C5B23046FBF70E
:104940002AFF7888A842DAD8641CB9F806004FF626
:10495000FF72A1B2904200D31046884207D331B112
:10496000A9F80410012150460BF0FAF804E00A22DD
:10497000012150460BF074F90020BDE8F0870000DB
:1049800070B50C464A881D49054651F82010496902
:1049900008E08B88934204D8CB88934201D30889DE
:1049A00004E009680029F4D104F0ECFFA188891D16
:1049B0008BB2062101EB052221781B2919D040F684
:1049C0000D4501462846FBF7E1FE054620781B28E9
:1049D00012D013202870A08868806088A880A288E0
:1049E000A11DA81DFBF723FE2846FBF7D4FE0020DF
:1049F00070BD40F60C45E4E71220EBE7744600205A
:104A00002DE9F0410D460646FF210024114B95F893
:104A10000800224613F83270874202D103EBC20429
:104A20006468521CD2B20E2AF4D37CB11D2808D07F
:104A30001B2806D0062000EB062140F61C40FBF7A1
:104A4000C3FE05F108013046A04701460846BDE80F
:104A5000F0810000A4CD020170B50D46064601218B
:104A60000AF04EFD0C2806D04122012130460BF001
:104A7000F7F8002070BD012130460AF04FFD0446D2
:104A8000A888E188401A81B2618104F10C000144D8
:104A9000EA8805F10800FBF701FE28B96089E9887A
:104AA00008442189884201D94FF6FF7060810121B5
:104AB00030460BF055F8DCE72DE9F35F0C464888EB
:104AC0004978B0FBF1F0C5B2012100980AF018FD59
:104AD000022868D1002D66D0012100980AF01EFD41
:104AE000054600266078B046142801D0022000E078
:104AF0001020814600274FF6FF7A35E0012100980B
:104B00000AF014FD01460098062202EB002209F18A
:104B1000060340F60440FBF739FE8346A019B61C95
:104B20008088ABF80000F1B26018891C8088ABF86F
:104B30000200CEB28046A1198BF804904A460BF1D0
:104B40000500091DFBF773FD06EB0900C6B26B7883
:104B500005F1080249460BF1050000F0F3FD00B134
:104B600001275846FBF717FE6088B04202D90FB9FB
:104B7000D045C3D108F1010080B267B9E988514539
:104B800000D35146814206D328B1A8800121009864
:104B90000AF0E6FF04E00022012100980BF060F823
:104BA0000020BDE8FC9F4122F6E700002DE9F34F0D
:104BB00081B000260C46B1460121009601980AF00A
:104BC0009FFC06220199042802EB012866D00528E3
:104BD00005D0062803D00A2870D04022F8E0012131
:104BE00001980AF09BFC05466078072801D910203F
:104BF00000E0022082464FF0050B3DE0A019B0F81E
:104C00000490287805280AD006EB0B0020446B7826
:104C100005F108025146001D00F094FD48B3012142
:104C200001980AF083FC014642460AF1060340F669
:104C30000640FBF7ABFDB61C0746A0F80090F1B2AA
:104C40006018491C00793871C9B26018891C8288C3
:104C50007A80CEB2A11987F805A05246B81D091D69
:104C6000FBF7E5FC06EB0A00C6B23846FBF793FDFE
:104C700002E060783044C6B26088B042BED809F124
:104C8000010081B2EA884FF6FF70824200D21046DE
:104C9000884276D3002974D0A9806CE00121019864
:104CA0000AF03CFC83460027A0783D46400702D02E
:104CB0001020824630E001270220FAE763E001215C
:104CC00001980AF033FC014642460AF1080340F617
:104CD0000540FBF75BFD0546A019B61C81882980BD
:104CE000F1B26018891C8288C9B260186A80828813
:104CF000891CAA80CEB2A7B1A11985F806A0524698
:104D0000E81D091DFBF793FC06EB0A00C6B2B5F8D7
:104D100000902846FBF73FFD6088B042CFD84FB1E6
:104D20001AE03C4A0198A5F10C0152F820000C3021
:104D3000FBF73BFD85B10020009043460A22042189
:104D400001980FF0FFF8014668884880019800F04C
:104D500041F90020BDE8FE8F09F1010081B2BBF8E6
:104D600006004FF6FF72904200D202468A4208D3F4
:104D700031B1ABF80410012101980AF0F1FE2BE0EB
:104D8000FFE70A2224E001980AF0B2FB6178801E56
:104D9000884223DD012101980AF0C8FB63780146AF
:104DA000424640F609401B1DFBF7F0FCA188054672
:104DB000018014F8010F611D801E82B2AA800020BC
:104DC0006880A81DFBF733FC2846FBF7E4FC0022B3
:104DD000012101980AF044FF0098BBE7A4F10805FF
:104DE000012101980AF09AFBA18881806178891ECF
:104DF000C180002101816078A5F10C01801E6880CE
:104E00000448019A50F822000C30FBF7CEFC012038
:104E10000090B0E7744600202DE9F05F8946834694
:104E200001210AF06DFB0B2801D0412248E001214D
:104E300058460AF073FB00260746B246354635E071
:104E4000012158460AF072FB07EB85080146B8F8C5
:104E500006000622801D83B202EB0B2240F60940B9
:104E6000FBF794FCB8F8041004460180B9F802007E
:104E7000B8F80610801B814200D2084682B2A28098
:104E80000020608009EB0601A01D091DFBF7CFFB88
:104E9000A0888119CEB2B8F80610884201D04FF030
:104EA000500A2046FBF777FC6D1CEDB27878A842DB
:104EB000C6D8B9F80200B04201D04FF0500A5246AD
:104EC000012158460AF0CCFE0020BDE8F09F00000A
:104ED0002DE9F0410C4606464FF0000801210AF08A
:104EE0000FFB3B4F042807D008282BD0092829D0D6
:104EF0000A2827D0412258E0012130460AF00EFB53
:104F0000054657F826000C30FBF74AFC00F10C0769
:104F10001022211DF81DFBF78AFB1020B8713846BE
:104F2000FBF739FC38884FF6FF72401C81B2E888E5
:104F3000904200D31046884202D309B1A98040E0D4
:104F40000A2232E0012130460AF0E8FA0546A11FA4
:104F5000002021F80E0957F826000C30FBF725FC3D
:104F6000288920B16188814200D20846608057F8C4
:104F7000260062884FF00108C068C189114489B2D7
:104F8000C181B1F5006F01D911220EE030460AF05F
:104F9000AFFA6188401E884203DC2889814209D328
:104FA00040B1304600F054F80022012130460AF0AA
:104FB00057FE0AE0EA881144E98010B16188401A7E
:104FC0002881012130460AF0CBFD4046BDE8F08142
:104FD0007446002010B50C4601462078D2280CD02B
:104FE00052280AD01E2808D0062000EB012140F6E6
:104FF000B83240F61C40FBF7ECFB2046BDE8104001
:105000000FF080BA38B504460020009006200D4607
:1050100000EB04231822042120460EF093FF0146E2
:1050200045702046BDE83840FFF7D4BF38B5044688
:1050300000200090062000EB04231E2204212046BD
:105040000EF080FF01462046BDE83840FFF7C2BFA2
:105050002DE9F05F374C814654F82900C0680028DC
:1050600066D0012148460AF059FA824654F82900D0
:10507000A3464FF00008C56801214846EF8905F1B5
:105080000C040AF053FAB91D8BB20622014602EB5A
:10509000092240F60940FBF779FB8780BAF8041033
:1050A0000180BAF8061006464180207A092833D1DB
:1050B000627A04F10807B01DB91D921EFBF7B7FA1A
:1050C0007878811E1FFA81F8296819B17188081A49
:1050D000801C70802D68A4F10C00FBF77FFB05F1AC
:1050E0000C0419E004F1080706EB08006289391D79
:1050F000801DFBF79CFA788800EB08011FFA81F805
:10510000296811B17188081A70802D68A7F1140000
:1051100005F10C04FBF762FB002DE3D15BF82900DD
:105120000C30FBF747FB3046BDE8F05FFBF733BBC5
:10513000BDE8F09F7446002010B5044601210AF036
:10514000DFF90C2801D0412200E000220121204695
:105150000AF086FD002010BD2DE9FC410F4600211C
:105160000091019198461646694600F0E9FB04005B
:1051700044D14FF42051684600F002FFA0BB42F634
:105180000101684600F0FCFE70BB42F60301684670
:1051900000F0F6FE40BB42F60201684600F0F0FE69
:1051A00010BB4FF42451684600F0EAFEE0B942F625
:1051B0000211684600F0E4FEB0B942F603116846F9
:1051C00000F0DEFE80B900998888020415D4C0F38F
:1051D0000B000D186888B04200D207242988B8193E
:1051E000884202D90D2409E007E0A8193A46414651
:1051F000001DFBF71CFA6F8000E006242046BDE886
:10520000FC817CB50E46002100910191154669464E
:1052100000F096FB040024D14FF42051684600F0C2
:10522000AFFEB8B942F60101684600F0A9FE88B9A0
:1052300042F60301684600F0A3FE58B942F60201A7
:10524000684600F09DFE28B94FF42451684600F0EE
:1052500097FE08B1062404E000994888B04328432B
:10526000488020467CBD00007FB50BA6044669CE71
:105270008DE869000020042A0BD0022A09D01022F0
:105280006844FBF7D4F9102269462046FBF7CFF9B2
:105290007FBD0C20F4E70000FB349B5F80000080A2
:1052A00000100000000000002DE9F74F8CB04FF017
:1052B0000008BDF830000E461546CDF80C8003A955
:1052C000CDF81080834600F03BFB04006AD14FF418
:1052D000205103A800F054FE504F4FF0010928B9A7
:1052E00042F6010103A800F04BFE78B1012308AAA1
:1052F00001A903A8CDF8009000F0CAFB040051D129
:105300009DF80420328008A9384662E042F6030185
:1053100003A800F035FEDFF804A1AAF1080A40B3A3
:105320000BF1010080B2CDF81480CDF81880ADF8F3
:10533000300005A900F004FB040032D1002308AAC4
:1053400001A905A8CDF8009000F0A2FB9DF804206B
:10535000D01C308005984088010A8AF80810BDF8F2
:105360003010AAF8091008A90AF10B00FBF75FF941
:1053700031E042F6020103A800F002FE68B3039890
:105380008188C1F30B01084405A98088ADF830007D
:10539000CDF8148080B2CDF8188000F0D1FA040066
:1053A00001D0802436E0012308AA01A905A8CDF880
:1053B000009000F06DFB9DF80420101D30800599D1
:1053C00016480B88AAF808304988AAF80A1008A9D4
:1053D000001DFBF718F92F601CE04FF4245103A8BF
:1053E00000F0CEFD48B103988188C1F30B01084459
:1053F00002213180001D28600CE003998888020496
:1054000007D4C0F30B000844011D29604088308098
:1054100000E006240FB02046BDE8F08FCC46002007
:1054200008B100F07DBA024900200860486070476A
:10543000C44600201FB507A41ECC8DE81E0081893C
:10544000ADF80C10102302461946684600F07AF9B0
:1054500004B010BDFB349B5F800000800010000092
:10546000000000001FB507A41ECC8DE81E00C16817
:105470001023024603911946684600F063F904B010
:1054800010BD0000FB349B5F800000800010000016
:105490000000000010B586B004460088ADF800009A
:1054A000491E8DF80510684600F040FCBDF800105C
:1054B000218006B010BD2DE9FF5F8046DDE90E9A20
:1054C00000271E4615460120DDF844B00CE03DB132
:1054D00005EBD00100F007020978D140C90701D0DF
:1054E0007F1CFFB2401CC0B2B042F0D307EB4700B4
:1054F00000EBC700162101EB40000321FBF79CF8ED
:10550000B8F8001001804771A0F802A02BF06001EC
:105510000171BDF80410C1800446002101201FE084
:105520003DB105EBD00200F007031278DA40D20754
:1055300014D0109A01EB410302EBC00203EBC1034C
:1055400004EB4303D7881F859788491C27F4C0477D
:105550005F855788DF841288DA82C9B2401CC0B2E6
:10556000B042DDD3204600F019F907001CD1218894
:10557000A8F800100021084611E03DB105EBD0026B
:1055800000F007031278DA40D20706D098F800201E
:105590000A44491C09F80020C9B2401CC0B2B042FC
:1055A00002D2B9F1000FE8D12046FBF74AF804B067
:1055B0003846BDE8F09F00002DE9FF5F8246DDE937
:1055C000119500261F4690460120DDF838B00EE008
:1055D000B8F1000F07D008EBD00100F007020978FE
:1055E000D140C90701D0761CF6B2401CC0B2B84207
:1055F000EED306EB460000EBC600162101EB40009F
:105600000321FBF719F8BAF80010018046710F99D1
:105610004180044680F80490C9F3411020B101286C
:1056200006D0022813D108E0BDF80400E0800AE0AB
:1056300055F8040BC4F8060005E010222946A01D09
:10564000FAF7F5FF10354FF00009012630E00D257F
:105650005DE000BFB8F1000F07D008EBD60006F000
:1056600007010078C840C00720D0109809EB490313
:1056700000EBC60103EBC90004EB4000CA880285B9
:105680008A8842854B88C384C2F34132C2B1012A61
:1056900019D0022ADBD1102229461630FAF7C7FFAB
:1056A00015F1100509F1010000F0FF09761CF6B2B2
:1056B000BE42CFD3204600F071F8050008D026E0A6
:1056C0000988C182EEE755F8041BC0F81610E9E717
:1056D0002188AAF800100021084613E0B8F1000F55
:1056E00007D008EBD00200F007031278DA40D207A7
:1056F00006D09AF800205318491C0BF80030C9B2A4
:10570000401CC0B2B84202D2BBF1000FE6D1204625
:10571000FAF797FF04B02846BDE8F09F70B50D4634
:10572000002400F091F928B1807A20F06000287000
:10573000204670BD0124FBE707B5022302AA00F052
:1057400001F80EBD70B5002488B01D46164602292A
:1057500006D0042908D010290BD0102D09D019E04B
:10576000022DFAD1022202E0042DF6D104223146A4
:105770000CE00A4601466846FFF776FD2A463146A8
:1057800004A8FFF771FD102204A96846FAF786FF06
:1057900000B9012408B0204670BD0000F8B50646E7
:1057A000008830B10025304600F0C0FA04002BD14B
:1057B00001E00125F7E76946304600F0D4F904001E
:1057C00022D10121BDF80000FAF736FF0746014655
:1057D0002B46BDF80020304600F0D2FA38460B497F
:1057E000002308E085889688B54203D20260012331
:1057F000086000E011460A6812B1002BF2D003E005
:1058000013B90860002101602046F8BDC44600209D
:105810002DE9F84F82460A9F16460C463868002547
:1058200028B93946504600F08BF8050075D14FF481
:105830002051384600F0A4FB4FF000094FF40078E7
:10584000B8B942F60101384600F09AFB88B942F631
:105850000301384600F094FB58B942F6020138467D
:1058600000F08EFB28B94FF42451384600F088FB35
:1058700050B126B1464505D1A4F800904DE0A4F8FA
:1058800000804AE0062548E03868408820809EB3C2
:105890003042F7D08DF8009069465046FFF73EFF42
:1058A00005003AD138688088C00403D49DF8000010
:1058B000800700D50C25B6F5805F22D008DC464570
:1058C0000DD0B6F5806F0ED0B6F5006F0FD10AE09F
:1058D000B6F5005F11D0B6F5804F08D103E020780F
:1058E00000F0030002E02078C0F3810020809DF8E2
:1058F0000000C10609D508250FE02078C0F301108B
:10590000F4E72078C0F38110F0E7C0F381008DF850
:1059100000002188814200D220802846BDE8F88F0F
:1059200070B5064C206803E00568FAF78AFE284641
:105930000028F9D12060606070BD0000C4460020DE
:1059400070B50C460646012500F07EF880B18188CE
:105950000025B14203D1001D2060012007E0711A2B
:1059600001EB410100EB4100083020600020207174
:10597000284670BD70B50D46064600244FF42051F0
:1059800000F0FEFAB8B942F60101304600F0F8FA2C
:1059900088B942F60301304600F0F2FA58B942F6EF
:1059A0000201304600F0ECFA28B94FF42451304699
:1059B00000F0E6FA08B1062407E03168888802049E
:1059C000C0F30B0000D4085A2880204670BD0000A8
:1059D000F0B51C4D0124D5E90023CBB106889F8882
:1059E000BE4215D3DA88964201D81A4614E01A68E6
:1059F0000EE003889688B34206D3D688B34206D811
:105A0000D37ADB0708D002E0D37ADB0703D0126831
:105A1000002AEED113E00680938800880024834298
:105A200003D1101D0860012007E0C01A00EB400000
:105A300002EB400008300860002008716A602046D0
:105A4000F0BD0000C4460020104B10B50246D3E95B
:105A5000000199B18C88944210D8C888904201D333
:105A6000084610BD086809E0818891420BD8C188BA
:105A7000914202D3C17AC90703D000680028F3D14C
:105A800010BD586010BD002010BD0000C4460020AD
:105A9000F8B516460025069A0C460D700168A9B1A6
:105AA000077987B303B3897911F0600F10D0C1F380
:105AB000411101290ED002290ED0002121700229A6
:105AC0000CD004290DD0102945D10AE0012542E06F
:105AD0000221F3E70421F1E71021EFE70168083123
